:1000000004308A00662C000055367439E1396F37A8
:10001000E9316F000A22E939741DA0123117323319
:10002000A0316D00343084008313000803192628A2
:100030000F30F800F701F70B1B28F80B1A288F3048
:10004000F700F70B21280000800B182808003B1848
:100050002B2886112C288615831686118312BB182F
:1000600033280612342806168316061283123B190B
:100070003B2886123C288616831686128312BB19EB
:10008000432806134428061783160613000083121C
:100090000615831606110730F700F70B4D28502878
:1000A000831206118316061183120800BC01831601
:1000B00086150030831286190130BC04831606169B
:1000C00000308312061A0130F7000310F70D77088D
:1000D000BC048316861600308312861A0130F7009E
:1000E000F70DF70DFC30F7057708BC0483160617EB
:1000F00000308312061B0130F700F70DF70DF70DE6
:10010000F830F7057708BC043C08F80008008316AF
:100110000611061086108312061083160610861527
:10012000061686160617831286148316861000009C
:1001300083120615831606110000831256207808D4
:10014000BB000611831606110000831206158316E4
:1001500006110330F700F70BAB28AE2883125620A8
:100160007808BA0006118316061186110612861247
:10017000061383123B0EF700F030F70577083A04B8
:10018000F8007808BA00BA1FC72883168F28B80865
:10019000031DCC280610CD28061483160610000077
:1001A00083128610831686100000831206118316B0
:1001B00006118312390EBA000F30BA053A08BB0097
:1001C000272039080F39BA00BB0027200800283043
:1001D000A7000C30A8000130A9000630AA000611C3
:1001E00083160611831206108316061083128610DA
:1001F0008316861086110612861206130611061043
:1002000086100F308312B40012200130A600260899
:10021000033C031C13290330BB0027200530B40026
:100220001220A60A07290230BB0027200530B4009F
:100230001220A6012608033C031C2A292730260782
:10024000840083130008AB00B8012B08B900872095
:10025000A60A1A298A110A12792C350B302933295A
:100260004030B6003429B60101303402B6073608F2
:100270008038B700B8013708B90087200800330874
:10028000073A03194D290B3A03195229063A031963
:100290005A29023A0319602965290130B400B500D2
:1002A0002D216A29B8010130B90087200230B4003D
:1002B00012206A290130B4000230B5002D216A29CC
:1002C000B8011030B90087206A290130B80033081E
:1002D000B900872008000B08A6008B1383160317AC
:1002E0008C170C140000000083120313A61B8B173D
:1002F00003170C087F390319BF290313A60003173E
:100300000D080313A70003170F080313A8002608FE
:10031000B3003F21270803178D0003132808031794
:100320008F0003130B08A9008B13831603178C1778
:100330000C140000000083120313A91B8B17031772
:100340000C0D0E0D7F390319BF290313A6000317E7
:100350000D080313A70003170F080313A8002608AE
:10036000B3003F21270803178D0003132808031744
:100370008F008D0A03198F0A03136B2903170313C8
:100380008A110A12802C33080319332ABB0037085C
:100390000319332ABB070318D4297F30BB02031C7F
:1003A000332A0319332AD8298130BB070318332A8B
:1003B0003B08F700F801F901FA013408BF00BF1744
:1003C0003508BE003608BD001830BB00BC013D1C1E
:1003D000012A3A08FA07031CF329F90A031DF32935
:1003E000F80A0319BC173908F907031CFA29F80A97
:1003F0000319BC173808B500B5173508F8070318F6
:10040000BC17BC0DF80CF90CFA0CBF0CBE0CBD0CE3
:100410000310BB0BE6290130F7070318332AF81B3A
:10042000182ABF0DFA0DF90DF80DF7030319332A39
:10043000BF1F292AFA0A031D292AF90A031D292A9E
:10044000F80A031D292AF80CF90CFA0CF70A03190B
:10045000332A3408BC003808BC06BC1F312AF81700
:10046000372AF813372AF701F801F901FA010800D1
:1004700083183D2A3B3084008313F701F801F9010A
:10048000FA01BB01BC01BD01BE013A0839043804C0
:10049000370403197B2A2030BF000310B30DB40DBD
:1004A000B50DB60DBB0DBC0DBD0DBE0D3A083E021F
:1004B000031D642A39083D02031D642A38083C02E2
:1004C000031D642A37083B02031C752A3708BB0248
:1004D0003808031C380FBC023908031C390FBD0251
:1004E0003A08031C3A0FBE020314F70DF80DF90D7C
:1004F000FA0DBF0B4D2A3B088000840A3C0880009F
:10050000840A3D088000840A3E0880000800040830
:10051000AB002A08AD000319A62A2908B60028084E
:10052000B5002708B4002608B300BA01B90120308D
:10053000B8008230B700C3217A08A9007908A80062
:100540007808A7007708A600AD0B8D2A2908B60009
:100550002808B5002708B4002608B3003308B63CC5
:10056000B300FA013408B700B4170310B40CB50C8B
:10057000B60CFA0CF90CF80CF70CB30BB52AB71F34
:10058000CC2AF709F809F909FA09F70A0319F80A50
:100590000319F90A0319FA0A7A08A9007908A800C8
:1005A0007808A7007708A600A91FE32AAB03AB16BB
:1005B000A609A709A809A909A60A0319A70A0319E0
:1005C000A80A0319A90A3B30B2009A30B100CA3018
:1005D000B000AF010A30AD002A080319AB0A83143A
:1005E0002630840083132908B6002808B5002708A0
:1005F000B4002608B3003208BA003108B900300848
:10060000B8002F08B70038227808F708031D1B2B05
:100610002A0A2D0203191B2B2B0803191D2B0F3936
:100620002D020319152B03184D2BAB1B4D2B2B1B28
:100630001D2B2030492B2030AB05AB1E2B2BAB12D2
:100640002A08031DAB037708AB002D30B3003F2110
:100650002B08F700AB012A082D02031D392B770860
:10066000AB002E30B3003F212B08F7002030AB0544
:1006700000303030AB1E492BAB122A08031DAB03F0
:100680007708AB002D30B3003F212B08F700AB01FA
:100690003030F7077708B3003F2183103208B600E7
:1006A0003108B5003008B4002F08B300BA01B90111
:1006B000B8010A30B70038227A08B2007908B100D0
:1006C0007808B0007708AF00AD0BEF2A8A110A1244
:1006D000572C83160510831205142730F700F70BEB
:1006E0006F2B722B8316051083120510851C762B39
:1006F0008E018F018E0185187B2B0F08FA000E08E2
:10070000F7000F087A02031D7D2B7708A0007A08F6
:10071000A1000310210CA700200CA6002708A900A7
:100720002608A800AB012230AA001030AC00F70167
:10073000FA01A90CA80C031CA32B2A08F70703181D
:10074000FA0A2B08FA07FA0CF70CF90CF80CAC0BA8
:10075000992B7908A7007808A6002708A900260881
:10076000A8008E30F7002908F8002808F900FA01DF
:10077000F808031DC52B7908F800F9010830F702C5
:10078000F808031DC52BF701CD2B0310F81BCC2B4C
:10079000F90DF80DF703C52BF8137A08B6007908A0
:1007A000B5007808B4007708B3008130BA009630FD
:1007B000B9002E30B8007430B700C3217A08A50004
:1007C0007908A4007808A3007708A2000130B400DB
:1007D0000230B5002D210A3003178D0000308F0044
:1007E000031007300313A6000B08A7008B13831612
:1007F00003178C170C140000000083120313A71BAF
:100800008B1703182B2C03170C087F390313A70031
:1008100003170D080313A80003170F080313A900FB
:100820002708B3003F21280803178D000313290868
:1008300003178F0003130B08AA008B1383160317EB
:100840008C170C140000000083120313AA1B8B17D3
:10085000A60B2B2C4A2C03170C0D0E0D7F390313FE
:10086000A70003170D080313A80003170F080313AD
:10087000A9002708B3003F21280803178D000313A0
:10088000290803178F008D0A03198F0A0310031319
:10089000A60BF42B893084002508A9002408A800A1
:1008A0002308A7002208A6000230AA00872A2030C9
:1008B000B3003F216330B3003F216D30B3003F21CF
:1008C000C830B40012208A110A12932C03081F3971
:1008D0008300A101A001A501A401A301A201831627
:1008E0001F149F141F159F1107309C008313831240
:1008F000E728043003178D0000308F0003136B29A5
:100900000230A600FA30B4001220A60B822C0C3064
:10091000B3003F21B53090008E018F018E01C830A9
:0A092000B4001220692B8F2C630035
:02400E00723FFF
:00000001FF
;PIC16F877A
;CRC=D619  CREATED="28-nov.-20 00:26"
